{
    "contractName": "BasicToken",
    "abi": [
        {
            "inputs": [
                {
                    "internalType": "uint256",
                    "name": "initialSupply",
                    "type": "uint256"
                }
            ],
            "stateMutability": "nonpayable",
            "type": "constructor"
        },
        {
            "anonymous": false,
            "inputs": [
                {
                    "indexed": true,
                    "internalType": "address",
                    "name": "form",
                    "type": "address"
                },
                {
                    "indexed": true,
                    "internalType": "address",
                    "name": "to",
                    "type": "address"
                },
                {
                    "indexed": false,
                    "internalType": "uint256",
                    "name": "value",
                    "type": "uint256"
                }
            ],
            "name": "Transfer",
            "type": "event"
        },
        {
            "inputs": [
                {
                    "internalType": "address",
                    "name": "",
                    "type": "address"
                }
            ],
            "name": "balanceOf",
            "outputs": [
                {
                    "internalType": "uint256",
                    "name": "",
                    "type": "uint256"
                }
            ],
            "stateMutability": "view",
            "type": "function"
        },
        {
            "inputs": [],
            "name": "decimals",
            "outputs": [
                {
                    "internalType": "uint8",
                    "name": "",
                    "type": "uint8"
                }
            ],
            "stateMutability": "view",
            "type": "function"
        },
        {
            "inputs": [],
            "name": "name",
            "outputs": [
                {
                    "internalType": "string",
                    "name": "",
                    "type": "string"
                }
            ],
            "stateMutability": "view",
            "type": "function"
        },
        {
            "inputs": [],
            "name": "symbol",
            "outputs": [
                {
                    "internalType": "string",
                    "name": "",
                    "type": "string"
                }
            ],
            "stateMutability": "view",
            "type": "function"
        },
        {
            "inputs": [],
            "name": "totalSupply",
            "outputs": [
                {
                    "internalType": "uint256",
                    "name": "",
                    "type": "uint256"
                }
            ],
            "stateMutability": "view",
            "type": "function"
        }
    ],
    "bytecode": "60803461017c57601f61050638819003918201601f19168301916001600160401b038311848410176101805780849260209460405283398101031261017c57516100495f54610194565b601f8111610135575b507f4d79204261736963204e616d650000000000000000000000000000000000001a5f5560015461008290610194565b601f81116100ed575b5060066213509560ea1b01600155601260ff196002541617600255670de0b6b3a7640000810290808204670de0b6b3a764000014901517156100d95760035560405161033990816101cd8239f35b634e487b7160e01b5f52601160045260245ffd5b60015f52601f0160051c7fb10e2d527612073b26eecdfd717e6a320cf44b4afac2b0732d9fcbe2b7fa0cf6908101905b81811061012a575061008b565b5f815560010161011d565b5f8052601f0160051c7f290decd9548b62a8d60345a988386fc84ba6bc95484008f6362f93160ef3e563908101905b8181106101715750610052565b5f8155600101610164565b5f80fd5b634e487b7160e01b5f52604160045260245ffd5b90600182811c921680156101c2575b60208310146101ae57565b634e487b7160e01b5f52602260045260245ffd5b91607f16916101a356fe60806040526004361015610011575f80fd5b5f3560e01c806306fdde03146101eb57806318160ddd146101ce578063313ce567146101ae57806370a0823114610172576395d89b4114610050575f80fd5b3461016e575f36600319011261016e576040515f6001548060011c90600181168015610164575b6020831081146101505782855290811561013457506001146100de575b50819003601f01601f191681019067ffffffffffffffff8211818310176100ca57604082905281906100c690826102d9565b0390f35b634e487b7160e01b5f52604160045260245ffd5b60015f9081529091507fb10e2d527612073b26eecdfd717e6a320cf44b4afac2b0732d9fcbe2b7fa0cf65b82821061011e5750602091508201015f610094565b6001816020925483858801015201910190610109565b90506020925060ff191682840152151560051b8201015f610094565b634e487b7160e01b5f52602260045260245ffd5b91607f1691610077565b5f80fd5b3461016e57602036600319011261016e576004356001600160a01b0381169081900361016e575f526004602052602060405f2054604051908152f35b3461016e575f36600319011261016e57602060ff60025416604051908152f35b3461016e575f36600319011261016e576020600354604051908152f35b3461016e575f36600319011261016e576040515f5f548060011c906001811680156102cf575b602083108114610150578285529081156102b3575060011461025f5750819003601f01601f191681019067ffffffffffffffff8211818310176100ca57604082905281906100c690826102d9565b5f8080529091507f290decd9548b62a8d60345a988386fc84ba6bc95484008f6362f93160ef3e5635b82821061029d57506020915082010182610094565b6001816020925483858801015201910190610288565b90506020925060ff191682840152151560051b82010182610094565b91607f1691610211565b602060409281835280519182918282860152018484015e5f828201840152601f01601f191601019056fea26469706673582212205c58b77bf15cddde476db63a927f3b088d094364a8dd33193a29dcea29f7875864736f6c634300081e0033",
    "sourcePath": "e:/Blockchain Project/contracts/BasicToken.sol",
    "compiler": {
        "name": "solc",
        "version": "0.8.30+commit.73712a01"
    },
    "functionHashes": {
        "balanceOf(address)": "70a08231",
        "decimals()": "313ce567",
        "name()": "06fdde03",
        "symbol()": "95d89b41",
        "totalSupply()": "18160ddd"
    },
    "gasEstimates": {
        "creation": {
            "codeDepositCost": "165000",
            "executionCost": "infinite",
            "totalCost": "infinite"
        },
        "external": {
            "balanceOf(address)": "2425",
            "decimals()": "2298",
            "name()": "infinite",
            "symbol()": "infinite",
            "totalSupply()": "2270"
        }
    }
}