{
  "_format": "hh-sol-artifact-1",
  "contractName": "VotingSystem",
  "sourceName": "contracts/VotingSystem.sol",
  "abi": [
    {
      "inputs": [],
      "stateMutability": "nonpayable",
      "type": "constructor"
    },
    {
      "inputs": [
        {
          "internalType": "address",
          "name": "owner",
          "type": "address"
        }
      ],
      "name": "OwnableInvalidOwner",
      "type": "error"
    },
    {
      "inputs": [
        {
          "internalType": "address",
          "name": "account",
          "type": "address"
        }
      ],
      "name": "OwnableUnauthorizedAccount",
      "type": "error"
    },
    {
      "anonymous": false,
      "inputs": [
        {
          "indexed": true,
          "internalType": "address",
          "name": "previousOwner",
          "type": "address"
        },
        {
          "indexed": true,
          "internalType": "address",
          "name": "newOwner",
          "type": "address"
        }
      ],
      "name": "OwnershipTransferred",
      "type": "event"
    },
    {
      "anonymous": false,
      "inputs": [
        {
          "indexed": true,
          "internalType": "uint256",
          "name": "proposalId",
          "type": "uint256"
        },
        {
          "indexed": false,
          "internalType": "string",
          "name": "title",
          "type": "string"
        },
        {
          "indexed": false,
          "internalType": "string",
          "name": "description",
          "type": "string"
        }
      ],
      "name": "ProposalCreated",
      "type": "event"
    },
    {
      "anonymous": false,
      "inputs": [
        {
          "indexed": true,
          "internalType": "uint256",
          "name": "proposalId",
          "type": "uint256"
        },
        {
          "indexed": false,
          "internalType": "enum VotingSystem.ProposalStatus",
          "name": "status",
          "type": "uint8"
        }
      ],
      "name": "ProposalEnded",
      "type": "event"
    },
    {
      "anonymous": false,
      "inputs": [
        {
          "indexed": true,
          "internalType": "uint256",
          "name": "proposalId",
          "type": "uint256"
        },
        {
          "indexed": true,
          "internalType": "address",
          "name": "voter",
          "type": "address"
        },
        {
          "indexed": false,
          "internalType": "bool",
          "name": "support",
          "type": "bool"
        }
      ],
      "name": "Voted",
      "type": "event"
    },
    {
      "anonymous": false,
      "inputs": [
        {
          "indexed": true,
          "internalType": "address",
          "name": "voter",
          "type": "address"
        }
      ],
      "name": "VoterRegistered",
      "type": "event"
    },
    {
      "inputs": [
        {
          "internalType": "string",
          "name": "_title",
          "type": "string"
        },
        {
          "internalType": "string",
          "name": "_description",
          "type": "string"
        },
        {
          "internalType": "uint256",
          "name": "_duration",
          "type": "uint256"
        }
      ],
      "name": "createProposal",
      "outputs": [],
      "stateMutability": "nonpayable",
      "type": "function"
    },
    {
      "inputs": [
        {
          "internalType": "uint256",
          "name": "_proposalId",
          "type": "uint256"
        }
      ],
      "name": "endProposal",
      "outputs": [],
      "stateMutability": "nonpayable",
      "type": "function"
    },
    {
      "inputs": [
        {
          "internalType": "uint256",
          "name": "_id",
          "type": "uint256"
        }
      ],
      "name": "getProposal",
      "outputs": [
        {
          "components": [
            {
              "internalType": "uint256",
              "name": "id",
              "type": "uint256"
            },
            {
              "internalType": "string",
              "name": "title",
              "type": "string"
            },
            {
              "internalType": "string",
              "name": "description",
              "type": "string"
            },
            {
              "internalType": "uint256",
              "name": "startTime",
              "type": "uint256"
            },
            {
              "internalType": "uint256",
              "name": "endTime",
              "type": "uint256"
            },
            {
              "internalType": "uint256",
              "name": "yesVotes",
              "type": "uint256"
            },
            {
              "internalType": "uint256",
              "name": "noVotes",
              "type": "uint256"
            },
            {
              "internalType": "enum VotingSystem.ProposalStatus",
              "name": "status",
              "type": "uint8"
            }
          ],
          "internalType": "struct VotingSystem.Proposal",
          "name": "",
          "type": "tuple"
        }
      ],
      "stateMutability": "view",
      "type": "function"
    },
    {
      "inputs": [
        {
          "internalType": "uint256",
          "name": "_id",
          "type": "uint256"
        }
      ],
      "name": "getVoteCounts",
      "outputs": [
        {
          "internalType": "uint256",
          "name": "yes",
          "type": "uint256"
        },
        {
          "internalType": "uint256",
          "name": "no",
          "type": "uint256"
        }
      ],
      "stateMutability": "view",
      "type": "function"
    },
    {
      "inputs": [
        {
          "internalType": "uint256",
          "name": "",
          "type": "uint256"
        },
        {
          "internalType": "address",
          "name": "",
          "type": "address"
        }
      ],
      "name": "hasVoted",
      "outputs": [
        {
          "internalType": "bool",
          "name": "",
          "type": "bool"
        }
      ],
      "stateMutability": "view",
      "type": "function"
    },
    {
      "inputs": [
        {
          "internalType": "address",
          "name": "",
          "type": "address"
        }
      ],
      "name": "isRegisteredVoter",
      "outputs": [
        {
          "internalType": "bool",
          "name": "",
          "type": "bool"
        }
      ],
      "stateMutability": "view",
      "type": "function"
    },
    {
      "inputs": [],
      "name": "owner",
      "outputs": [
        {
          "internalType": "address",
          "name": "",
          "type": "address"
        }
      ],
      "stateMutability": "view",
      "type": "function"
    },
    {
      "inputs": [],
      "name": "proposalCount",
      "outputs": [
        {
          "internalType": "uint256",
          "name": "",
          "type": "uint256"
        }
      ],
      "stateMutability": "view",
      "type": "function"
    },
    {
      "inputs": [
        {
          "internalType": "uint256",
          "name": "",
          "type": "uint256"
        }
      ],
      "name": "proposals",
      "outputs": [
        {
          "internalType": "uint256",
          "name": "id",
          "type": "uint256"
        },
        {
          "internalType": "string",
          "name": "title",
          "type": "string"
        },
        {
          "internalType": "string",
          "name": "description",
          "type": "string"
        },
        {
          "internalType": "uint256",
          "name": "startTime",
          "type": "uint256"
        },
        {
          "internalType": "uint256",
          "name": "endTime",
          "type": "uint256"
        },
        {
          "internalType": "uint256",
          "name": "yesVotes",
          "type": "uint256"
        },
        {
          "internalType": "uint256",
          "name": "noVotes",
          "type": "uint256"
        },
        {
          "internalType": "enum VotingSystem.ProposalStatus",
          "name": "status",
          "type": "uint8"
        }
      ],
      "stateMutability": "view",
      "type": "function"
    },
    {
      "inputs": [
        {
          "internalType": "address",
          "name": "_voter",
          "type": "address"
        }
      ],
      "name": "registerVoter",
      "outputs": [],
      "stateMutability": "nonpayable",
      "type": "function"
    },
    {
      "inputs": [],
      "name": "renounceOwnership",
      "outputs": [],
      "stateMutability": "nonpayable",
      "type": "function"
    },
    {
      "inputs": [
        {
          "internalType": "address",
          "name": "newOwner",
          "type": "address"
        }
      ],
      "name": "transferOwnership",
      "outputs": [],
      "stateMutability": "nonpayable",
      "type": "function"
    },
    {
      "inputs": [
        {
          "internalType": "uint256",
          "name": "_proposalId",
          "type": "uint256"
        },
        {
          "internalType": "bool",
          "name": "_support",
          "type": "bool"
        }
      ],
      "name": "vote",
      "outputs": [],
      "stateMutability": "nonpayable",
      "type": "function"
    }
  ],
  "bytecode": "0x60806040523480156200001157600080fd5b5033600073ffffffffffffffffffffffffffffffffffffffff168173ffffffffffffffffffffffffffffffffffffffff1603620000885760006040517f1e4fbdf70000000000000000000000000000000000000000000000000000000081526004016200007f9190620001a9565b60405180910390fd5b6200009981620000a060201b60201c565b50620001c6565b60008060009054906101000a900473ffffffffffffffffffffffffffffffffffffffff169050816000806101000a81548173ffffffffffffffffffffffffffffffffffffffff021916908373ffffffffffffffffffffffffffffffffffffffff1602179055508173ffffffffffffffffffffffffffffffffffffffff168173ffffffffffffffffffffffffffffffffffffffff167f8be0079c531659141344cd1fd0a4f28419497f9722a3daafe3b4186f6b6457e060405160405180910390a35050565b600073ffffffffffffffffffffffffffffffffffffffff82169050919050565b6000620001918262000164565b9050919050565b620001a38162000184565b82525050565b6000602082019050620001c0600083018462000198565b92915050565b61210d80620001d66000396000f3fe608060405234801561001057600080fd5b50600436106100cf5760003560e01c80638da5cb5b1161008c578063c9d27afe11610066578063c9d27afe14610218578063da35c66414610234578063da36cffe14610252578063f2fde38b14610282576100cf565b80638da5cb5b146101ae578063a07bd400146101cc578063c7f758a8146101e8576100cf565b8063013cf08b146100d45780630ce0ebf41461010b57806338db6dd3146101275780634385963214610143578063715018a6146101735780638a241f4c1461017d575b600080fd5b6100ee60048036038101906100e9919061132e565b61029e565b604051610102989796959493929190611471565b60405180910390f35b61012560048036038101906101209190611632565b610413565b005b610141600480360381019061013c919061171b565b61058b565b005b61015d60048036038101906101589190611748565b6106bd565b60405161016a91906117a3565b60405180910390f35b61017b6106ec565b005b6101976004803603810190610192919061132e565b610700565b6040516101a59291906117be565b60405180910390f35b6101b661091e565b6040516101c391906117f6565b60405180910390f35b6101e660048036038101906101e1919061132e565b610947565b005b61020260048036038101906101fd919061132e565b610b2c565b60405161020f9190611930565b60405180910390f35b610232600480360381019061022d919061197e565b610d3e565b005b61023c61108e565b60405161024991906119be565b60405180910390f35b61026c6004803603810190610267919061171b565b611094565b60405161027991906117a3565b60405180910390f35b61029c6004803603810190610297919061171b565b6110b4565b005b600381815481106102ae57600080fd5b90600052602060002090600802016000915090508060000154908060010180546102d790611a08565b80601f016020809104026020016040519081016040528092919081815260200182805461030390611a08565b80156103505780601f1061032557610100808354040283529160200191610350565b820191906000526020600020905b81548152906001019060200180831161033357829003601f168201915b50505050509080600201805461036590611a08565b80601f016020809104026020016040519081016040528092919081815260200182805461039190611a08565b80156103de5780601f106103b3576101008083540402835291602001916103de565b820191906000526020600020905b8154815290600101906020018083116103c157829003601f168201915b5050505050908060030154908060040154908060050154908060060154908060070160009054906101000a900460ff16905088565b61041b61113a565b60006002600081548092919061043090611a68565b919050559050600360405180610100016040528083815260200186815260200185815260200142815260200184426104689190611ab0565b815260200160008152602001600081526020016000600381111561048f5761048e6113fa565b5b81525090806001815401808255809150506001900390600052602060002090600802016000909190919091506000820151816000015560208201518160010190816104da9190611c90565b5060408201518160020190816104f09190611c90565b50606082015181600301556080820151816004015560a0820151816005015560c0820151816006015560e08201518160070160006101000a81548160ff02191690836003811115610544576105436113fa565b5b02179055505050807fab417751734d6a1f646db70d698328fa08bc6c3f8d4b8ef2a69adb1eb051496b858560405161057d929190611d62565b60405180910390a250505050565b61059361113a565b600160008273ffffffffffffffffffffffffffffffffffffffff1673ffffffffffffffffffffffffffffffffffffffff16815260200190815260200160002060009054906101000a900460ff1615610620576040517f08c379a000000000000000000000000000000000000000000000000000000000815260040161061790611de5565b60405180910390fd5b60018060008373ffffffffffffffffffffffffffffffffffffffff1673ffffffffffffffffffffffffffffffffffffffff16815260200190815260200160002060006101000a81548160ff0219169083151502179055508073ffffffffffffffffffffffffffffffffffffffff167fb6be2187d059cc2a55fe29e0e503b566e1e0f8c8780096e185429350acffd3dd60405160405180910390a250565b60046020528160005260406000206020528060005260406000206000915091509054906101000a900460ff1681565b6106f461113a565b6106fe60006111c1565b565b6000806002548310610747576040517f08c379a000000000000000000000000000000000000000000000000000000000815260040161073e90611e51565b60405180910390fd5b60006003848154811061075d5761075c611e71565b5b9060005260206000209060080201604051806101000160405290816000820154815260200160018201805461079190611a08565b80601f01602080910402602001604051908101604052809291908181526020018280546107bd90611a08565b801561080a5780601f106107df5761010080835404028352916020019161080a565b820191906000526020600020905b8154815290600101906020018083116107ed57829003601f168201915b5050505050815260200160028201805461082390611a08565b80601f016020809104026020016040519081016040528092919081815260200182805461084f90611a08565b801561089c5780601f106108715761010080835404028352916020019161089c565b820191906000526020600020905b81548152906001019060200180831161087f57829003601f168201915b50505050508152602001600382015481526020016004820154815260200160058201548152602001600682015481526020016007820160009054906101000a900460ff1660038111156108f2576108f16113fa565b5b6003811115610904576109036113fa565b5b8152505090508060a001518160c001519250925050915091565b60008060009054906101000a900473ffffffffffffffffffffffffffffffffffffffff16905090565b600254811061098b576040517f08c379a000000000000000000000000000000000000000000000000000000000815260040161098290611e51565b60405180910390fd5b6000600382815481106109a1576109a0611e71565b5b90600052602060002090600802019050600060038111156109c5576109c46113fa565b5b8160070160009054906101000a900460ff1660038111156109e9576109e86113fa565b5b14610a29576040517f08c379a0000000000000000000000000000000000000000000000000000000008152600401610a2090611eec565b60405180910390fd5b80600401544211610a6f576040517f08c379a0000000000000000000000000000000000000000000000000000000008152600401610a6690611f58565b60405180910390fd5b806006015481600501541115610ab15760028160070160006101000a81548160ff02191690836003811115610aa757610aa66113fa565b5b0217905550610adf565b60038160070160006101000a81548160ff02191690836003811115610ad957610ad86113fa565b5b02179055505b817f0407f8194d4644cd7e397c8a1776ee11b9aef50ccc914612023b9d5c1fcc39748260070160009054906101000a900460ff16604051610b209190611f78565b60405180910390a25050565b610b3461128d565b6002548210610b78576040517f08c379a0000000000000000000000000000000000000000000000000000000008152600401610b6f90611e51565b60405180910390fd5b60038281548110610b8c57610b8b611e71565b5b90600052602060002090600802016040518061010001604052908160008201548152602001600182018054610bc090611a08565b80601f0160208091040260200160405190810160405280929190818152602001828054610bec90611a08565b8015610c395780601f10610c0e57610100808354040283529160200191610c39565b820191906000526020600020905b815481529060010190602001808311610c1c57829003601f168201915b50505050508152602001600282018054610c5290611a08565b80601f0160208091040260200160405190810160405280929190818152602001828054610c7e90611a08565b8015610ccb5780601f10610ca057610100808354040283529160200191610ccb565b820191906000526020600020905b815481529060010190602001808311610cae57829003601f168201915b50505050508152602001600382015481526020016004820154815260200160058201548152602001600682015481526020016007820160009054906101000a900460ff166003811115610d2157610d206113fa565b5b6003811115610d3357610d326113fa565b5b815250509050919050565b600160003373ffffffffffffffffffffffffffffffffffffffff1673ffffffffffffffffffffffffffffffffffffffff16815260200190815260200160002060009054906101000a900460ff16610dca576040517f08c379a0000000000000000000000000000000000000000000000000000000008152600401610dc190611fdf565b60405180910390fd5b6004600083815260200190815260200160002060003373ffffffffffffffffffffffffffffffffffffffff1673ffffffffffffffffffffffffffffffffffffffff16815260200190815260200160002060009054906101000a900460ff1615610e68576040517f08c379a0000000000000000000000000000000000000000000000000000000008152600401610e5f9061204b565b60405180910390fd5b6002548210610eac576040517f08c379a0000000000000000000000000000000000000000000000000000000008152600401610ea390611e51565b60405180910390fd5b600060038381548110610ec257610ec1611e71565b5b9060005260206000209060080201905060006003811115610ee657610ee56113fa565b5b8160070160009054906101000a900460ff166003811115610f0a57610f096113fa565b5b14610f4a576040517f08c379a0000000000000000000000000000000000000000000000000000000008152600401610f4190611eec565b60405180910390fd5b8060040154421115610f91576040517f08c379a0000000000000000000000000000000000000000000000000000000008152600401610f88906120b7565b60405180910390fd5b60016004600085815260200190815260200160002060003373ffffffffffffffffffffffffffffffffffffffff1673ffffffffffffffffffffffffffffffffffffffff16815260200190815260200160002060006101000a81548160ff021916908315150217905550811561101f5780600501600081548092919061101590611a68565b919050555061103a565b80600601600081548092919061103490611a68565b91905055505b3373ffffffffffffffffffffffffffffffffffffffff16837ff2913dbe661ee2acc4a046d8fbcdc792373bda34c41c6086484b5345e5785e5f8460405161108191906117a3565b60405180910390a3505050565b60025481565b60016020528060005260406000206000915054906101000a900460ff1681565b6110bc61113a565b600073ffffffffffffffffffffffffffffffffffffffff168173ffffffffffffffffffffffffffffffffffffffff160361112e5760006040517f1e4fbdf700000000000000000000000000000000000000000000000000000000815260040161112591906117f6565b60405180910390fd5b611137816111c1565b50565b611142611285565b73ffffffffffffffffffffffffffffffffffffffff1661116061091e565b73ffffffffffffffffffffffffffffffffffffffff16146111bf57611183611285565b6040517f118cdaa70000000000000000000000000000000000000000000000000000000081526004016111b691906117f6565b60405180910390fd5b565b60008060009054906101000a900473ffffffffffffffffffffffffffffffffffffffff169050816000806101000a81548173ffffffffffffffffffffffffffffffffffffffff021916908373ffffffffffffffffffffffffffffffffffffffff1602179055508173ffffffffffffffffffffffffffffffffffffffff168173ffffffffffffffffffffffffffffffffffffffff167f8be0079c531659141344cd1fd0a4f28419497f9722a3daafe3b4186f6b6457e060405160405180910390a35050565b600033905090565b60405180610100016040528060008152602001606081526020016060815260200160008152602001600081526020016000815260200160008152602001600060038111156112de576112dd6113fa565b5b81525090565b6000604051905090565b600080fd5b600080fd5b6000819050919050565b61130b816112f8565b811461131657600080fd5b50565b60008135905061132881611302565b92915050565b600060208284031215611344576113436112ee565b5b600061135284828501611319565b91505092915050565b611364816112f8565b82525050565b600081519050919050565b600082825260208201905092915050565b60005b838110156113a4578082015181840152602081019050611389565b60008484015250505050565b6000601f19601f8301169050919050565b60006113cc8261136a565b6113d68185611375565b93506113e6818560208601611386565b6113ef816113b0565b840191505092915050565b7f4e487b7100000000000000000000000000000000000000000000000000000000600052602160045260246000fd5b6004811061143a576114396113fa565b5b50565b600081905061144b82611429565b919050565b600061145b8261143d565b9050919050565b61146b81611450565b82525050565b600061010082019050611487600083018b61135b565b8181036020830152611499818a6113c1565b905081810360408301526114ad81896113c1565b90506114bc606083018861135b565b6114c9608083018761135b565b6114d660a083018661135b565b6114e360c083018561135b565b6114f060e0830184611462565b9998505050505050505050565b600080fd5b600080fd5b7f4e487b7100000000000000000000000000000000000000000000000000000000600052604160045260246000fd5b61153f826113b0565b810181811067ffffffffffffffff8211171561155e5761155d611507565b5b80604052505050565b60006115716112e4565b905061157d8282611536565b919050565b600067ffffffffffffffff82111561159d5761159c611507565b5b6115a6826113b0565b9050602081019050919050565b82818337600083830152505050565b60006115d56115d084611582565b611567565b9050828152602081018484840111156115f1576115f0611502565b5b6115fc8482856115b3565b509392505050565b600082601f830112611619576116186114fd565b5b81356116298482602086016115c2565b91505092915050565b60008060006060848603121561164b5761164a6112ee565b5b600084013567ffffffffffffffff811115611669576116686112f3565b5b61167586828701611604565b935050602084013567ffffffffffffffff811115611696576116956112f3565b5b6116a286828701611604565b92505060406116b386828701611319565b9150509250925092565b600073ffffffffffffffffffffffffffffffffffffffff82169050919050565b60006116e8826116bd565b9050919050565b6116f8816116dd565b811461170357600080fd5b50565b600081359050611715816116ef565b92915050565b600060208284031215611731576117306112ee565b5b600061173f84828501611706565b91505092915050565b6000806040838503121561175f5761175e6112ee565b5b600061176d85828601611319565b925050602061177e85828601611706565b9150509250929050565b60008115159050919050565b61179d81611788565b82525050565b60006020820190506117b86000830184611794565b92915050565b60006040820190506117d3600083018561135b565b6117e0602083018461135b565b9392505050565b6117f0816116dd565b82525050565b600060208201905061180b60008301846117e7565b92915050565b61181a816112f8565b82525050565b600082825260208201905092915050565b600061183c8261136a565b6118468185611820565b9350611856818560208601611386565b61185f816113b0565b840191505092915050565b61187381611450565b82525050565b6000610100830160008301516118926000860182611811565b50602083015184820360208601526118aa8282611831565b915050604083015184820360408601526118c48282611831565b91505060608301516118d96060860182611811565b5060808301516118ec6080860182611811565b5060a08301516118ff60a0860182611811565b5060c083015161191260c0860182611811565b5060e083015161192560e086018261186a565b508091505092915050565b6000602082019050818103600083015261194a8184611879565b905092915050565b61195b81611788565b811461196657600080fd5b50565b60008135905061197881611952565b92915050565b60008060408385031215611995576119946112ee565b5b60006119a385828601611319565b92505060206119b485828601611969565b9150509250929050565b60006020820190506119d3600083018461135b565b92915050565b7f4e487b7100000000000000000000000000000000000000000000000000000000600052602260045260246000fd5b60006002820490506001821680611a2057607f821691505b602082108103611a3357611a326119d9565b5b50919050565b7f4e487b7100000000000000000000000000000000000000000000000000000000600052601160045260246000fd5b6000611a73826112f8565b91507fffffffffffffffffffffffffffffffffffffffffffffffffffffffffffffffff8203611aa557611aa4611a39565b5b600182019050919050565b6000611abb826112f8565b9150611ac6836112f8565b9250828201905080821115611ade57611add611a39565b5b92915050565b60008190508160005260206000209050919050565b60006020601f8301049050919050565b600082821b905092915050565b600060088302611b467fffffffffffffffffffffffffffffffffffffffffffffffffffffffffffffffff82611b09565b611b508683611b09565b95508019841693508086168417925050509392505050565b6000819050919050565b6000611b8d611b88611b83846112f8565b611b68565b6112f8565b9050919050565b6000819050919050565b611ba783611b72565b611bbb611bb382611b94565b848454611b16565b825550505050565b600090565b611bd0611bc3565b611bdb818484611b9e565b505050565b5b81811015611bff57611bf4600082611bc8565b600181019050611be1565b5050565b601f821115611c4457611c1581611ae4565b611c1e84611af9565b81016020851015611c2d578190505b611c41611c3985611af9565b830182611be0565b50505b505050565b600082821c905092915050565b6000611c6760001984600802611c49565b1980831691505092915050565b6000611c808383611c56565b9150826002028217905092915050565b611c998261136a565b67ffffffffffffffff811115611cb257611cb1611507565b5b611cbc8254611a08565b611cc7828285611c03565b600060209050601f831160018114611cfa5760008415611ce8578287015190505b611cf28582611c74565b865550611d5a565b601f198416611d0886611ae4565b60005b82811015611d3057848901518255600182019150602085019450602081019050611d0b565b86831015611d4d5784890151611d49601f891682611c56565b8355505b6001600288020188555050505b505050505050565b60006040820190508181036000830152611d7c81856113c1565b90508181036020830152611d9081846113c1565b90509392505050565b7f566f74657220616c726561647920726567697374657265640000000000000000600082015250565b6000611dcf601883611375565b9150611dda82611d99565b602082019050919050565b60006020820190508181036000830152611dfe81611dc2565b9050919050565b7f496e76616c69642070726f706f73616c20494400000000000000000000000000600082015250565b6000611e3b601383611375565b9150611e4682611e05565b602082019050919050565b60006020820190508181036000830152611e6a81611e2e565b9050919050565b7f4e487b7100000000000000000000000000000000000000000000000000000000600052603260045260246000fd5b7f50726f706f73616c206973206e6f742061637469766500000000000000000000600082015250565b6000611ed6601683611375565b9150611ee182611ea0565b602082019050919050565b60006020820190508181036000830152611f0581611ec9565b9050919050565b7f566f74696e6720706572696f6420686173206e6f7420656e6465642079657400600082015250565b6000611f42601f83611375565b9150611f4d82611f0c565b602082019050919050565b60006020820190508181036000830152611f7181611f35565b9050919050565b6000602082019050611f8d6000830184611462565b92915050565b7f4e6f742061207265676973746572656420766f74657200000000000000000000600082015250565b6000611fc9601683611375565b9150611fd482611f93565b602082019050919050565b60006020820190508181036000830152611ff881611fbc565b9050919050565b7f416c726561647920766f746564206f6e20746869732070726f706f73616c0000600082015250565b6000612035601e83611375565b915061204082611fff565b602082019050919050565b6000602082019050818103600083015261206481612028565b9050919050565b7f566f74696e6720706572696f642068617320656e646564000000000000000000600082015250565b60006120a1601783611375565b91506120ac8261206b565b602082019050919050565b600060208201905081810360008301526120d081612094565b905091905056fea26469706673582212204458802ec3465c03f483094ae37c6a1bde10813c999a253c00959368c4b76ece64736f6c63430008180033",
  "linkReferences": {},
  "deployedLinkReferences": {}
}